{
  "contractName": "RetailSupplyChain",
  "abi": [
    {
      "inputs": [],
      "payable": false,
      "stateMutability": "nonpayable",
      "type": "constructor"
    },
    {
      "constant": false,
      "inputs": [
        {
          "internalType": "uint256",
          "name": "productID",
          "type": "uint256"
        },
        {
          "internalType": "string",
          "name": "productName",
          "type": "string"
        },
        {
          "internalType": "string",
          "name": "brand",
          "type": "string"
        },
        {
          "internalType": "string",
          "name": "location",
          "type": "string"
        }
      ],
      "name": "addProduct",
      "outputs": [],
      "payable": false,
      "stateMutability": "nonpayable",
      "type": "function"
    },
    {
      "constant": false,
      "inputs": [
        {
          "internalType": "uint256",
          "name": "productID",
          "type": "uint256"
        },
        {
          "internalType": "string",
          "name": "transportAgencyName",
          "type": "string"
        },
        {
          "internalType": "string",
          "name": "destAddress",
          "type": "string"
        },
        {
          "internalType": "enum RetailSupplyChain.Participants",
          "name": "partType",
          "type": "uint8"
        },
        {
          "internalType": "address payable",
          "name": "ownerAddr",
          "type": "address"
        }
      ],
      "name": "shipProduct",
      "outputs": [],
      "payable": false,
      "stateMutability": "nonpayable",
      "type": "function"
    },
    {
      "constant": false,
      "inputs": [
        {
          "internalType": "uint256",
          "name": "productID",
          "type": "uint256"
        }
      ],
      "name": "listAllTrackInfo",
      "outputs": [
        {
          "internalType": "bytes32[]",
          "name": "",
          "type": "bytes32[]"
        }
      ],
      "payable": false,
      "stateMutability": "nonpayable",
      "type": "function"
    },
    {
      "constant": true,
      "inputs": [
        {
          "internalType": "uint256",
          "name": "productID",
          "type": "uint256"
        },
        {
          "internalType": "uint256",
          "name": "index",
          "type": "uint256"
        }
      ],
      "name": "getTrackInfo",
      "outputs": [
        {
          "internalType": "string",
          "name": "owner",
          "type": "string"
        },
        {
          "internalType": "string",
          "name": "location",
          "type": "string"
        },
        {
          "internalType": "string",
          "name": "description",
          "type": "string"
        },
        {
          "internalType": "uint256",
          "name": "time",
          "type": "uint256"
        }
      ],
      "payable": false,
      "stateMutability": "view",
      "type": "function"
    },
    {
      "constant": false,
      "inputs": [
        {
          "internalType": "uint256",
          "name": "productID",
          "type": "uint256"
        },
        {
          "internalType": "enum RetailSupplyChain.Participants",
          "name": "partType",
          "type": "uint8"
        },
        {
          "internalType": "string",
          "name": "destAddress",
          "type": "string"
        },
        {
          "internalType": "string",
          "name": "description",
          "type": "string"
        }
      ],
      "name": "updateTrackInfo",
      "outputs": [],
      "payable": false,
      "stateMutability": "nonpayable",
      "type": "function"
    },
    {
      "constant": false,
      "inputs": [
        {
          "internalType": "uint256",
          "name": "_productID",
          "type": "uint256"
        }
      ],
      "name": "buyProduct",
      "outputs": [],
      "payable": true,
      "stateMutability": "payable",
      "type": "function"
    },
    {
      "constant": true,
      "inputs": [
        {
          "internalType": "uint256",
          "name": "_productID",
          "type": "uint256"
        }
      ],
      "name": "getSellerAddress",
      "outputs": [
        {
          "internalType": "address",
          "name": "",
          "type": "address"
        }
      ],
      "payable": false,
      "stateMutability": "view",
      "type": "function"
    }
  ],
  "bytecode": "0x608060405234801561001057600080fd5b50612467806100206000396000f3fe6080604052600436106100705760003560e01c8063895c6f411161004e578063895c6f41146103af578063a675364d1461054c578063c1393d27146105c7578063fb04a15d146107c757610070565b806306111cbb14610075578063107f59eb1461020b5780638642269e14610381575b600080fd5b34801561008157600080fd5b50610209600480360360a081101561009857600080fd5b8101908080359060200190929190803590602001906401000000008111156100bf57600080fd5b8201836020820111156100d157600080fd5b803590602001918460018302840111640100000000831117156100f357600080fd5b91908080601f016020809104026020016040519081016040528093929190818152602001838380828437600081840152601f19601f8201169050808301925050505050505091929192908035906020019064010000000081111561015657600080fd5b82018360208201111561016857600080fd5b8035906020019184600183028401116401000000008311171561018a57600080fd5b91908080601f016020809104026020016040519081016040528093929190818152602001838380828437600081840152601f19601f820116905080830192505050505050509192919290803560ff169060200190929190803573ffffffffffffffffffffffffffffffffffffffff169060200190929190505050610857565b005b34801561021757600080fd5b5061037f6004803603608081101561022e57600080fd5b8101908080359060200190929190803560ff1690602001909291908035906020019064010000000081111561026257600080fd5b82018360208201111561027457600080fd5b8035906020019184600183028401116401000000008311171561029657600080fd5b91908080601f016020809104026020016040519081016040528093929190818152602001838380828437600081840152601f19601f820116905080830192505050505050509192919290803590602001906401000000008111156102f957600080fd5b82018360208201111561030b57600080fd5b8035906020019184600183028401116401000000008311171561032d57600080fd5b91908080601f016020809104026020016040519081016040528093929190818152602001838380828437600081840152601f19601f820116905080830192505050505050509192919290505050610e67565b005b6103ad6004803603602081101561039757600080fd5b8101908080359060200190929190505050611236565b005b3480156103bb57600080fd5b506103f2600480360360408110156103d257600080fd5b8101908080359060200190929190803590602001909291905050506115bc565b60405180806020018060200180602001858152602001848103845288818151815260200191508051906020019080838360005b83811015610440578082015181840152602081019050610425565b50505050905090810190601f16801561046d5780820380516001836020036101000a031916815260200191505b50848103835287818151815260200191508051906020019080838360005b838110156104a657808201518184015260208101905061048b565b50505050905090810190601f1680156104d35780820380516001836020036101000a031916815260200191505b50848103825286818151815260200191508051906020019080838360005b8381101561050c5780820151818401526020810190506104f1565b50505050905090810190601f1680156105395780820380516001836020036101000a031916815260200191505b5097505050505050505060405180910390f35b34801561055857600080fd5b506105856004803603602081101561056f57600080fd5b810190808035906020019092919050505061189b565b604051808273ffffffffffffffffffffffffffffffffffffffff1673ffffffffffffffffffffffffffffffffffffffff16815260200191505060405180910390f35b3480156105d357600080fd5b506107c5600480360360808110156105ea57600080fd5b81019080803590602001909291908035906020019064010000000081111561061157600080fd5b82018360208201111561062357600080fd5b8035906020019184600183028401116401000000008311171561064557600080fd5b91908080601f016020809104026020016040519081016040528093929190818152602001838380828437600081840152601f19601f820116905080830192505050505050509192919290803590602001906401000000008111156106a857600080fd5b8201836020820111156106ba57600080fd5b803590602001918460018302840111640100000000831117156106dc57600080fd5b91908080601f016020809104026020016040519081016040528093929190818152602001838380828437600081840152601f19601f8201169050808301925050505050505091929192908035906020019064010000000081111561073f57600080fd5b82018360208201111561075157600080fd5b8035906020019184600183028401116401000000008311171561077357600080fd5b91908080601f016020809104026020016040519081016040528093929190818152602001838380828437600081840152601f19601f8201169050808301925050505050505091929192905050506118db565b005b3480156107d357600080fd5b50610800600480360360208110156107ea57600080fd5b8101908080359060200190929190505050611b9d565b6040518080602001828103825283818151815260200191508051906020019060200280838360005b83811015610843578082015181840152602081019050610828565b505050509050019250505060405180910390f35b61085f612092565b600660008781526020019081526020016000206040518060e001604052908160008201548152602001600182018054600181600116156101000203166002900480601f0160208091040260200160405190810160405280929190818152602001828054600181600116156101000203166002900480156109205780601f106108f557610100808354040283529160200191610920565b820191906000526020600020905b81548152906001019060200180831161090357829003601f168201915b50505050508152602001600282018054600181600116156101000203166002900480601f0160208091040260200160405190810160405280929190818152602001828054600181600116156101000203166002900480156109c25780601f10610997576101008083540402835291602001916109c2565b820191906000526020600020905b8154815290600101906020018083116109a557829003601f168201915b50505050508152602001600382018054600181600116156101000203166002900480601f016020809104026020016040519081016040528092919081815260200182805460018160011615610100020316600290048015610a645780601f10610a3957610100808354040283529160200191610a64565b820191906000526020600020905b815481529060010190602001808311610a4757829003601f168201915b5050505050815260200160048201548152602001600582015481526020016006820160009054906101000a900473ffffffffffffffffffffffffffffffffffffffff1673ffffffffffffffffffffffffffffffffffffffff1673ffffffffffffffffffffffffffffffffffffffff1681525050905085816000015114610ae957600080fd5b85600760008881526020019081526020016000206000018190555084600760008881526020019081526020016000206001019080519060200190610b2e9291906120e5565b5083600760008881526020019081526020016000206002019080519060200190610b599291906120e5565b50610b62612165565b60006003811115610b6f57fe5b846003811115610b7b57fe5b1415610c5c57610b89611faf565b82600360006101000a81548173ffffffffffffffffffffffffffffffffffffffff021916908373ffffffffffffffffffffffffffffffffffffffff16021790555060405180608001604052806040518060400160405280600c81526020017f4d616e756661637475726572000000000000000000000000000000000000000081525081526020018681526020016040518060400160405280600f81526020017f50726f64756374205368697070656400000000000000000000000000000000008152508152602001428152509050610d53565b60016003811115610c6957fe5b846003811115610c7557fe5b1415610d5257610c8361200b565b82600260006101000a81548173ffffffffffffffffffffffffffffffffffffffff021916908373ffffffffffffffffffffffffffffffffffffffff16021790555060405180608001604052806040518060400160405280600b81526020017f446973747269627574657200000000000000000000000000000000000000000081525081526020018681526020016040518060400160405280600f81526020017f50726f647563742053686970706564000000000000000000000000000000000081525081526020014281525090505b5b826006600089815260200190815260200160002060060160006101000a81548173ffffffffffffffffffffffffffffffffffffffff021916908373ffffffffffffffffffffffffffffffffffffffff160217905550600581908060018154018082558091505090600182039060005260206000209060040201600090919290919091506000820151816000019080519060200190610df292919061218d565b506020820151816001019080519060200190610e0f92919061218d565b506040820151816002019080519060200190610e2c92919061218d565b5060608201518160030155505050600560086000898152602001908152602001600020908054610e5d92919061220d565b5050505050505050565b610e6f612165565b610e77612092565b600660008781526020019081526020016000206040518060e001604052908160008201548152602001600182018054600181600116156101000203166002900480601f016020809104026020016040519081016040528092919081815260200182805460018160011615610100020316600290048015610f385780601f10610f0d57610100808354040283529160200191610f38565b820191906000526020600020905b815481529060010190602001808311610f1b57829003601f168201915b50505050508152602001600282018054600181600116156101000203166002900480601f016020809104026020016040519081016040528092919081815260200182805460018160011615610100020316600290048015610fda5780601f10610faf57610100808354040283529160200191610fda565b820191906000526020600020905b815481529060010190602001808311610fbd57829003601f168201915b50505050508152602001600382018054600181600116156101000203166002900480601f01602080910402602001604051908101604052809291908181526020018280546001816001161561010002031660029004801561107c5780601f106110515761010080835404028352916020019161107c565b820191906000526020600020905b81548152906001019060200180831161105f57829003601f168201915b5050505050815260200160048201548152602001600582015481526020016006820160009054906101000a900473ffffffffffffffffffffffffffffffffffffffff1673ffffffffffffffffffffffffffffffffffffffff1673ffffffffffffffffffffffffffffffffffffffff168152505090508581600001511461110157600080fd5b60038081111561110d57fe5b85600381111561111957fe5b141561122e5760405180608001604052806040518060400160405280600881526020017f437573746f6d657200000000000000000000000000000000000000000000000081525081526020018581526020018481526020014281525091506005829080600181540180825580915050906001820390600052602060002090600402016000909192909190915060008201518160000190805190602001906111c192919061218d565b5060208201518160010190805190602001906111de92919061218d565b5060408201518160020190805190602001906111fb92919061218d565b506060820151816003015550505060056008600088815260200190815260200160002090805461122c92919061220d565b505b505050505050565b61123e612092565b600660008381526020019081526020016000206040518060e001604052908160008201548152602001600182018054600181600116156101000203166002900480601f0160208091040260200160405190810160405280929190818152602001828054600181600116156101000203166002900480156112ff5780601f106112d4576101008083540402835291602001916112ff565b820191906000526020600020905b8154815290600101906020018083116112e257829003601f168201915b50505050508152602001600282018054600181600116156101000203166002900480601f0160208091040260200160405190810160405280929190818152602001828054600181600116156101000203166002900480156113a15780601f10611376576101008083540402835291602001916113a1565b820191906000526020600020905b81548152906001019060200180831161138457829003601f168201915b50505050508152602001600382018054600181600116156101000203166002900480601f0160208091040260200160405190810160405280929190818152602001828054600181600116156101000203166002900480156114435780601f1061141857610100808354040283529160200191611443565b820191906000526020600020905b81548152906001019060200180831161142657829003601f168201915b5050505050815260200160048201548152602001600582015481526020016006820160009054906101000a900473ffffffffffffffffffffffffffffffffffffffff1673ffffffffffffffffffffffffffffffffffffffff1673ffffffffffffffffffffffffffffffffffffffff1681525050905060008160c0015190508160a001513410156114d257600080fd5b828260000151146114e257600080fd5b3373ffffffffffffffffffffffffffffffffffffffff168173ffffffffffffffffffffffffffffffffffffffff16141561151b57600080fd5b8073ffffffffffffffffffffffffffffffffffffffff166108fc349081150290604051600060405180830381858888f19350505050158015611561573d6000803e3d6000fd5b50336006600085815260200190815260200160002060060160006101000a81548173ffffffffffffffffffffffffffffffffffffffff021916908373ffffffffffffffffffffffffffffffffffffffff160217905550505050565b60608060606000606060086000888152602001908152602001600020805480602002602001604051908101604052809291908181526020016000905b8282101561181a5783829060005260206000209060040201604051806080016040529081600082018054600181600116156101000203166002900480601f0160208091040260200160405190810160405280929190818152602001828054600181600116156101000203166002900480156116b45780601f10611689576101008083540402835291602001916116b4565b820191906000526020600020905b81548152906001019060200180831161169757829003601f168201915b50505050508152602001600182018054600181600116156101000203166002900480601f0160208091040260200160405190810160405280929190818152602001828054600181600116156101000203166002900480156117565780601f1061172b57610100808354040283529160200191611756565b820191906000526020600020905b81548152906001019060200180831161173957829003601f168201915b50505050508152602001600282018054600181600116156101000203166002900480601f0160208091040260200160405190810160405280929190818152602001828054600181600116156101000203166002900480156117f85780601f106117cd576101008083540402835291602001916117f8565b820191906000526020600020905b8154815290600101906020018083116117db57829003601f168201915b50505050508152602001600382015481525050815260200190600101906115f8565b50505050905080868151811061182c57fe5b60200260200101516000015181878151811061184457fe5b60200260200101516020015182888151811061185c57fe5b60200260200101516040015183898151811061187457fe5b60200260200101516060015183935082925081915094509450945094505092959194509250565b60006006600083815260200190815260200160002060060160009054906101000a900473ffffffffffffffffffffffffffffffffffffffff169050919050565b83600660008681526020019081526020016000206000015414156118fe57600080fd5b33600160006101000a81548173ffffffffffffffffffffffffffffffffffffffff021916908373ffffffffffffffffffffffffffffffffffffffff160217905550836006600086815260200190815260200160002060000181905550826006600086815260200190815260200160002060010190805190602001906119849291906120e5565b50816006600086815260200190815260200160002060020190805190602001906119af9291906120e5565b50806006600086815260200190815260200160002060030190805190602001906119da9291906120e5565b50426006600086815260200190815260200160002060040181905550336006600086815260200190815260200160002060060160006101000a81548173ffffffffffffffffffffffffffffffffffffffff021916908373ffffffffffffffffffffffffffffffffffffffff160217905550611a53612165565b60405180608001604052806040518060400160405280601281526020017f4d616e75666163747572696e6720556e6974000000000000000000000000000081525081526020018381526020016040518060400160405280601481526020017f50726f64756374204d616e7566616374757265640000000000000000000000008152508152602001428152509050600581908060018154018082558091505090600182039060005260206000209060040201600090919290919091506000820151816000019080519060200190611b2a92919061218d565b506020820151816001019080519060200190611b4792919061218d565b506040820151816002019080519060200190611b6492919061218d565b5060608201518160030155505050600560086000878152602001908152602001600020908054611b9592919061220d565b505050505050565b60606000606060086000858152602001908152602001600020805480602002602001604051908101604052809291908181526020016000905b82821015611df85783829060005260206000209060040201604051806080016040529081600082018054600181600116156101000203166002900480601f016020809104026020016040519081016040528092919081815260200182805460018160011615610100020316600290048015611c925780601f10611c6757610100808354040283529160200191611c92565b820191906000526020600020905b815481529060010190602001808311611c7557829003601f168201915b50505050508152602001600182018054600181600116156101000203166002900480601f016020809104026020016040519081016040528092919081815260200182805460018160011615610100020316600290048015611d345780601f10611d0957610100808354040283529160200191611d34565b820191906000526020600020905b815481529060010190602001808311611d1757829003601f168201915b50505050508152602001600282018054600181600116156101000203166002900480601f016020809104026020016040519081016040528092919081815260200182805460018160011615610100020316600290048015611dd65780601f10611dab57610100808354040283529160200191611dd6565b820191906000526020600020905b815481529060010190602001808311611db957829003601f168201915b5050505050815260200160038201548152505081526020019060010190611bd6565b505050509050600091505b6008600085815260200190815260200160002080549050821015611f55576004611e43828481518110611e3257fe5b602002602001015160000151612067565b90806001815401808255809150509060018203906000526020600020016000909192909190915055506004611e8e828481518110611e7d57fe5b602002602001015160200151612067565b90806001815401808255809150509060018203906000526020600020016000909192909190915055506004611ed9828481518110611ec857fe5b602002602001015160400151612067565b90806001815401808255809150509060018203906000526020600020016000909192909190915055506004818381518110611f1057fe5b60200260200101516060015160001b90806001815401808255809150509060018203906000526020600020016000909192909190915055508180600101925050611e03565b6004805480602002602001604051908101604052809291908181526020018280548015611fa157602002820191906000526020600020905b815481526020019060010190808311611f8d575b505050505092505050919050565b600160009054906101000a900473ffffffffffffffffffffffffffffffffffffffff1673ffffffffffffffffffffffffffffffffffffffff163373ffffffffffffffffffffffffffffffffffffffff161461200957600080fd5b565b600360009054906101000a900473ffffffffffffffffffffffffffffffffffffffff1673ffffffffffffffffffffffffffffffffffffffff163373ffffffffffffffffffffffffffffffffffffffff161461206557600080fd5b565b60006060829050600081511415612084576000801b91505061208d565b60208301519150505b919050565b6040518060e00160405280600081526020016060815260200160608152602001606081526020016000815260200160008152602001600073ffffffffffffffffffffffffffffffffffffffff1681525090565b828054600181600116156101000203166002900490600052602060002090601f016020900481019282601f1061212657805160ff1916838001178555612154565b82800160010185558215612154579182015b82811115612153578251825591602001919060010190612138565b5b50905061216191906122e7565b5090565b6040518060800160405280606081526020016060815260200160608152602001600081525090565b828054600181600116156101000203166002900490600052602060002090601f016020900481019282601f106121ce57805160ff19168380011785556121fc565b828001600101855582156121fc579182015b828111156121fb5782518255916020019190600101906121e0565b5b50905061220991906122e7565b5090565b8280548282559060005260206000209060040281019282156122d65760005260206000209160040282015b828111156122d55782826000820181600001908054600181600116156101000203166002900461226992919061230c565b506001820181600101908054600181600116156101000203166002900461229192919061230c565b50600282018160020190805460018160011615610100020316600290046122b992919061230c565b5060038201548160030155505091600401919060040190612238565b5b5090506122e39190612393565b5090565b61230991905b808211156123055760008160009055506001016122ed565b5090565b90565b828054600181600116156101000203166002900490600052602060002090601f016020900481019282601f106123455780548555612382565b8280016001018555821561238257600052602060002091601f016020900482015b82811115612381578254825591600101919060010190612366565b5b50905061238f91906122e7565b5090565b6123e791905b808211156123e357600080820160006123b291906123ea565b6001820160006123c291906123ea565b6002820160006123d291906123ea565b600382016000905550600401612399565b5090565b90565b50805460018160011615610100020316600290046000825580601f10612410575061242f565b601f01602090049060005260206000209081019061242e91906122e7565b5b5056fea265627a7a72315820e15cccd809b5cff15ef80c5c328354b7c4979bbca6de73b8acbecf682f32bf8c64736f6c63430005100032",
  "source": "pragma solidity ^0.5.0;\r\n\r\ncontract RetailSupplyChain {\r\n    address payable productOwner;\r\n    enum Participants {\r\n        manufacturer,\r\n        distributer,\r\n        retailer,\r\n        customer\r\n    }\r\n    struct Product {\r\n        uint256 productID;\r\n        string productName;\r\n        string brand;\r\n        string location;\r\n        uint256 dateTime;\r\n        uint256 price;\r\n        address payable owner;\r\n    }\r\n    struct ShipmentDetails {\r\n        uint256 productID;\r\n        string transportAgencyName;\r\n        string destAddress;\r\n    }\r\n\r\n    struct TrackDetails {\r\n        string owner;\r\n        string location;\r\n        string description;\r\n        uint256 time;\r\n    }\r\n    address seller;\r\n    address retailer;\r\n    address distributer;\r\n    modifier isRetailer() {\r\n        require(msg.sender == retailer);\r\n        _;\r\n    }\r\n\r\n    function isSeller() internal view {\r\n        require(msg.sender == seller);\r\n    }\r\n\r\n    function isDistributer() internal view {\r\n        require(msg.sender == distributer);\r\n    }\r\n\r\n    constructor() public {}\r\n\r\n    bytes32[] internal trackByteArray;\r\n    TrackDetails[] internal trackInfo;\r\n    mapping(uint256 => Product) inventory;\r\n    mapping(uint256 => ShipmentDetails) shipmentInfo;\r\n    mapping(uint256 => TrackDetails[]) trackInfoMap;\r\n\r\n    function compareStrings(string memory _a, string memory _b)\r\n        internal\r\n        pure\r\n        returns (bool)\r\n    {\r\n        return (keccak256(abi.encodePacked((_a))) ==\r\n            keccak256(abi.encodePacked((_b))));\r\n    }\r\n\r\n    function addProduct(\r\n        uint256 productID,\r\n        string memory productName,\r\n        string memory brand,\r\n        string memory location\r\n    ) public {\r\n        require(inventory[productID].productID != productID);\r\n        seller = msg.sender;\r\n        inventory[productID].productID = productID;\r\n        inventory[productID].productName = productName;\r\n        inventory[productID].brand = brand;\r\n        inventory[productID].location = location;\r\n        inventory[productID].dateTime = now;\r\n        inventory[productID].owner = msg.sender;\r\n        TrackDetails memory track = TrackDetails(\r\n            \"Manufacturing Unit\",\r\n            location,\r\n            \"Product Manufactured\",\r\n            now\r\n        );\r\n        trackInfo.push(track);\r\n        trackInfoMap[productID] = trackInfo;\r\n    }\r\n\r\n    function shipProduct(\r\n        uint256 productID,\r\n        string memory transportAgencyName,\r\n        string memory destAddress,\r\n        Participants partType,\r\n        address payable ownerAddr\r\n    ) public {\r\n        Product memory productDetails = inventory[productID];\r\n        require(productDetails.productID == productID);\r\n\r\n        shipmentInfo[productID].productID = productID;\r\n        shipmentInfo[productID].transportAgencyName = transportAgencyName;\r\n        shipmentInfo[productID].destAddress = destAddress;\r\n\r\n        TrackDetails memory track;\r\n        if (partType == Participants.manufacturer) {\r\n            isSeller();\r\n            distributer = ownerAddr;\r\n            track = TrackDetails(\r\n                \"Manufacturer\",\r\n                destAddress,\r\n                \"Product Shipped\",\r\n                now\r\n            );\r\n        } else if (partType == Participants.distributer) {\r\n            isDistributer();\r\n            retailer = ownerAddr;\r\n            track = TrackDetails(\r\n                \"Distributer\",\r\n                destAddress,\r\n                \"Product Shipped\",\r\n                now\r\n            );\r\n        }\r\n        // Transfer ownership\r\n        inventory[productID].owner = ownerAddr;\r\n        trackInfo.push(track);\r\n        trackInfoMap[productID] = trackInfo;\r\n    }\r\n\r\n    function stringToBytes32(string memory _source)\r\n        internal\r\n        pure\r\n        returns (bytes32 result_)\r\n    {\r\n        bytes memory tempEmptyStringTest = bytes(_source);\r\n        if (tempEmptyStringTest.length == 0) {\r\n            return 0x0;\r\n        }\r\n\r\n        assembly {\r\n            result_ := mload(add(_source, 32))\r\n        }\r\n    }\r\n\r\n    function listAllTrackInfo(uint256 productID)\r\n        public\r\n        returns (bytes32[] memory)\r\n    {\r\n        uint256 iterator;\r\n        TrackDetails[] memory trackDetails = trackInfoMap[productID];\r\n        for (\r\n            iterator = 0;\r\n            iterator < trackInfoMap[productID].length;\r\n            iterator++\r\n        ) {\r\n            trackByteArray.push(stringToBytes32(trackDetails[iterator].owner));\r\n            trackByteArray.push(\r\n                stringToBytes32(trackDetails[iterator].location)\r\n            );\r\n            trackByteArray.push(\r\n                stringToBytes32(trackDetails[iterator].description)\r\n            );\r\n            trackByteArray.push(bytes32(trackDetails[iterator].time));\r\n        }\r\n        return trackByteArray;\r\n    }\r\n\r\n    function getTrackInfo(uint256 productID, uint256 index)\r\n        public\r\n        view\r\n        returns (\r\n            string memory owner,\r\n            string memory location,\r\n            string memory description,\r\n            uint256 time\r\n        )\r\n    {\r\n        TrackDetails[] memory trackDetails = trackInfoMap[productID];\r\n\r\n        return (\r\n            trackDetails[index].owner,\r\n            trackDetails[index].location,\r\n            trackDetails[index].description,\r\n            trackDetails[index].time\r\n        );\r\n    }\r\n\r\n    function updateTrackInfo(\r\n        uint256 productID,\r\n        Participants partType,\r\n        string memory destAddress,\r\n        string memory description\r\n    ) public {\r\n        TrackDetails memory track;\r\n        Product memory productDetails = inventory[productID];\r\n\r\n        require(productDetails.productID == productID);\r\n        if (partType == Participants.customer) {\r\n            track = TrackDetails(\"Customer\", destAddress, description, now);\r\n            trackInfo.push(track);\r\n            trackInfoMap[productID] = trackInfo;\r\n        }\r\n    }\r\n\r\n    function buyProduct(uint256 _productID) public payable {\r\n        Product memory _product = inventory[_productID];\r\n        // Fetch the owner\r\n        address payable _seller = _product.owner;\r\n\r\n        // Require that there is enough Ether in the transaction\r\n        require(msg.value >= _product.price);\r\n        require(_product.productID == _productID);\r\n        // Require that the buyer is not the seller\r\n        require(_seller != msg.sender);\r\n\r\n        // Pay the seller by sending them Ether\r\n        address(_seller).transfer(msg.value);\r\n\r\n        // Transfer ownership to the buyer\r\n        inventory[_productID].owner = msg.sender;\r\n    }\r\n\r\n    function getSellerAddress(uint256 _productID)\r\n        public\r\n        view\r\n        returns (address)\r\n    {\r\n        return inventory[_productID].owner;\r\n    }\r\n}\r\n",
  "sourcePath": "D:\\BDF\\BlockchainRetailSupplyChain\\contracts\\RetailSupplyChain.sol",
  "compiler": {
    "name": "solc",
    "version": "0.5.16+commit.9c3226ce.Emscripten.clang"
  },
  "schemaVersion": "3.4.7",
  "updatedAt": "2022-04-18T10:05:08.642Z",
  "networkType": "ethereum",
  "devdoc": {
    "methods": {}
  },
  "userdoc": {
    "methods": {}
  }
}